:020000040800F2
:10000000106E0020410100086B010008696A0008B9
:1000100000000000000000000000000000000000E0
:100020000000000000000000000000005DB90008B2
:100030000000000000000000FF00000845C90008A3
:1000400075010008750100087501000875010008B8
:1000500075010008750100087501000875010008A8
:1000600075010008A51A0008DD1A0008491B0008E0
:100070007501000875010008750100087501000888
:1000800099CA00087501000875010008750100088B
:100090007501000875010008750100087501000868
:1000A00075010008750100087501000891D6000867
:1000B000B1D60008D1D6000875010008034885466E
:1000C00000F0DCFB0048004721EE0008106E002025
:1000D000064B19680868203080F30988022080F3F5
:1000E00014883FBCAE4662B600BD00008803002005
:1000F000EFF3108072B6704780F310887047EFF30B
:1001000009800E4B1A6820381060F0C044464D46F6
:1001100056465F46F0C008B572B612F097F962B65F
:100120000CBC116808681030F0C8A046A946B24659
:10013000BB4680F309882038F0C8184788030020A0
:100140000D480E49026800608A4203D00C4880477F
:100150000C4800470C480D4901600D480B490160EF
:100160000C4801688D4640680047FEE7FEE7FEE761
:10017000FEE7FEE7FEE70000F07F0020EFBEADDE09
:1001800021CA0008BD00000818100240010000004C
:100190000000014000D8FF1F30B50B46014600208B
:1001A0002022012409E00D46D5409D4205D31D467D
:1001B0009540491B2546954040191546521E002D75
:1001C000F1DC30BD70B500242546002801DA012499
:1001D0004042002901DA01254942FFF7DDFFAC4228
:1001E00000D04042002C00D0494270BD10B5202AFA
:1001F00004DB0846203AD040002110BD0B46D34016
:10020000D0402024A21A91400843194610BD000096
:10021000004870476C38010801464139192900D857
:100220002030704703460B439B0703D009E008C901
:10023000121F08C0042AFAD203E00B780370401C96
:10024000491C521EF9D27047D2B201E00270401C24
:10025000491EFBD270470022F6E710B513460A4646
:1002600004461946FFF7F0FF204610BD421E5378A2
:10027000521C002BFBD10B781370491C521C002B15
:10028000F9D1704710B5044605E00B780370401CA7
:10029000002B00D0491C521EF7D2204610BDCAB216
:1002A000401E4178401C8A4202D00029F9D100202A
:1002B0007047421C0178401C0029FBD1801A70470E
:1002C00010B5002200E0521C835C8C5CA34201D17B
:1002D000002BF8D1D8B2E1B2401A10BD30B50446B7
:1002E0000020034600E05B1C934203D2E05CCD5C3F
:1002F000401BF8D030BD03460A780270401C491CF0
:10030000002AF9D11846704730B50546002003464B
:1003100000E05B1C934205D2EC5CC85C201A01D162
:10032000002CF6D130BD70B506460DF05DFA0468BC
:1003300005460A220021304600F002F92C6070BD0B
:1003400070B506460DF050FA046805460A220021F1
:10035000304600F0F5F82C6070BD024670B54A409A
:10036000D30FDB0740002DD04A002AD0010E140E17
:10037000000212020919400A520A8418E5010446D3
:100380005443000A120A2E045043A4194219200CA7
:10039000C543AA18120C0125AD03521C52191204B0
:1003A0007F39240400D0521C104301D44000491E60
:1003B000C2B20C06C0092018401C4008802A02D096
:1003C00003E0002070BD40084000002900DA002052
:1003D000184370BD70B502464A40D50F40004A0030
:1003E000ED0740085208002814D0002A12D0C40D8E
:1003F000D30D41020120C0055202490A520AE41AF3
:10040000091812187D34914201D3641C00E04900A0
:10041000002C01DA002070BD0023914201D3891A1B
:100420000343400849000028F7D100290AD091422F
:1004300002D10121C90705E0914201D2012101E069
:100440000121C943E005C018401900F0B1F870BDA2
:1004500010B500229623114600F0B2F810BD00003E
:100460000EB505490291002100910A460B46019103
:1004700000F0ECF803B000BD33040000410040027E
:100480000122400AD205090E80187F2901DA0020D6
:100490007047962903DC9622511AC8407047963956
:1004A000884070474A0009030123090B1B051943C3
:1004B000094B10B5520D9A4201DA002010BD064BCF
:1004C00034339A4203DC9A1AFFF790FE10BD0349B9
:1004D0005118884010BD0000FF030000CDFBFFFF56
:1004E000F0B51FB40646002082B0054640240191B5
:1004F00000901BE0019922460F463046FFF776FE3A
:10050000049A059B801A994110D310461946224639
:1005100000F0C6F9361A8F410197224601200021CA
:10052000009F00F0BDF938184D4100902046641E30
:100530000028DFDC019B00982946324607B0F0BD59
:10054000F7B5009C0F4600262578641C002D05D0C9
:10055000FFF75EFE0068405DC007F5D12B2D02D08D
:100560002D2D18D0641E39462046029A00F0BBF9A2
:10057000002F04D03968A14201D10099396071057A
:10058000022400290BDA4042002803DD0DF02CF98B
:100590000460A007FEBD012080020643E3E70028B7
:1005A000F8DA0DF021F904600048FEBDFFFFFF7F7F
:1005B000002904DA401C490001D14008400070477E
:1005C00070B40024050C05D11024000402D10029C8
:1005D00021D01124050E01D100020834050F01D1EC
:1005E0000001241D850F01D18000A41C002801DB1F
:1005F0004000641C002908D020252E1B0D46F54024
:10060000A14000D001212943084301061B1B000A19
:10061000DB1D02D5002070BC7047DB051818801860
:100620000029F8DA401C4900F5D170BC40084000B0
:10063000704710B5002B08DA0024401C6141921865
:100640005B411A4301D14008400010BDF0B51FB412
:1006500082B005460C0003D008460DF09FF802E07A
:100660000DF09CF82030024600902146284600F00C
:1006700017F9049B059A04460F4618431143084393
:1006800014D0184610431BD0009840210A1A18466F
:100690000599FFF7ABFD05460E46009A05990498AB
:1006A00000F0FEF8084305D0012004E0204639465A
:1006B00007B0F0BD0020C11705430E432C4337435C
:1006C00000990E986305401A7905E40A00220C434C
:1006D000FD0A0A3002D500200146E9E7010510199C
:1006E00069410C9C0D9D00196941FFF7A2FFDFE7EE
:1006F000F0B507460846584087B0C00F0490480040
:100700000E46590040084908BC1A884105D23846AF
:1007100031461E4617460B46024658004008104315
:100720004CD0300D039040055900400D490D059007
:10073000401A0290402872DA18030121000B0905C3
:100740000843019004980092002805D00199524274
:100750000020884100920190029840210A1A0199D4
:10076000009800F09DF805460C466B4607CB00F05C
:10077000A7F8C0197141039A0E0D0023D7175640F0
:100780001A467A40164344D0049A002A2DD0029A81
:10079000012A039A15DC1205C01A9141012636057B
:1007A000001C7141D20F059ED20700930192029660
:1007B0002A462346FFF74AFF07B0F0BD38463146C8
:1007C000FAE71605224A0F46B218C01AB7410121AE
:1007D0000905001C4F4100187F4111461818794146
:1007E000E20F10436D19644113E0E2076D081543F1
:1007F0006408C2071443039A01261205C01A9141E6
:100800003605001C7141CE07400830434908C01826
:1008100051412A462346FFF70CFFCDE7FFE7049836
:1008200001224000C117121A00238B41049831465F
:10083000C417381AA141EEE730B40124E40763403D
:1008400030BC55E730B40124E407614030BC4FE7C9
:100850000000E0FF10B5002904DB0124E40740425A
:100860008C412146002B04DB1C460123DB0752424E
:10087000A341994200D1904210BD0000064C0125D1
:10088000064E05E0E36807CC2B430C3C9847103438
:10089000B442F7D3FFF716FC985B0108B85B010878
:1008A00010B5202A04DB0146203A9140002010BDFB
:1008B000914020239C1A0346E3401943904010BD09
:1008C00010B5202A06DBCB170846203A1041C11785
:1008D0000B4306E00B461341D0402024A21A91405E
:1008E0000843194610BDF7B582B0029C0027207856
:1008F000641C15460197302802D0002D15D015E054
:1009000020780127641C782804D0582802D0002DB4
:1009100009D00BE0002D01D0102D07D100271025A4
:100920002078641C02E0082500E00A2500260096D5
:1009300010E00099012769430818020C294680B28B
:10094000714300908E183804864201D30120019033
:100950002078641C294600F019F80028E9DA039889
:10096000002805D0002F01D0641E00E0029C046026
:100970000198002806D00CF037FF02210160C81E44
:1009800005B0F0BD009930040843F9E73A2800D2D9
:100990003038202302469A43412A01D31046373883
:1009A000884201D30020C043704770B58C18057889
:1009B000401C6B075B0F01D10378401C2A1106D144
:1009C0000278401C03E006780E70401C491C5B1E38
:1009D000F9D12B0705D40023521E0DD40B70491CEE
:1009E000FAE70378401CCB1A921C03E01D780D70C7
:1009F000491C5B1C521EF9D5A142D8D3002070BD02
:100A000070B5054600269849681C085C3038C4B2A9
:100A10000846405D622828D1A81C085C2E28FAD11F
:100A2000681C085C302820DB681C085C35281CDC4E
:100A30000A46E91C501807228CA1FFF765FC002824
:100A400014D1E00020188B494018007AC007C00F6D
:100A50000028E0D1E00020184018007A0121084366
:100A6000E1006118834A89180872FAE07E4AE91C9D
:100A700050180E2280A1FFF747FC002815D1E00096
:100A800020187C494018007A022108400228ECD046
:100A9000E000201877494018007A02210843E1005D
:100AA0006118744A89180872DBE06F4AE91C501813
:100AB0000C2275A1FFF728FC002864D1E000201863
:100AC0006C494018007A04210840042817D0E0003F
:100AD000201868494018007A04210843E100611891
:100AE000644A89180872604A29460F315018FFF786
:100AF0001AFCE10061185F4A89188870B1E0E000D3
:100B000020185C494018007A08210840082817D0AE
:100B1000E000201857494018007A08210843E100F6
:100B20006118544A891808724F4A29460F315018E3
:100B3000FFF7F9FBE10061184E4A8918C87090E090
:100B4000E00020184B494018007A10210840102876
:100B500017D0E000201847494018007A10210843B8
:100B6000E1006118434A891808723F4A29460F314B
:100B70005018FFF7D8FBE10061183E4A8918087148
:100B80006FE00C2070BD384AE91C50180D2242A1BC
:100B9000FFF7BAFB002864D1E0002018354940185F
:100BA000007A20210840202817D0E0002018314981
:100BB0004018007A20210843E10061182D4A891865
:100BC0000872294A294610315018FFF7ACFBE100A2
:100BD0006118284A8918487143E0E0002018254927
:100BE0004018007A40210840402817D0E000201823
:100BF00020494018007A40210843E10061181D4A4D
:100C000089180872184A294610315018FFF78BFBD3
:100C1000E1006118174A8918887122E0E000201865
:100C200014494018007A80210840802817D0E0003D
:100C3000201810494018007A80210843E10061180B
:100C40000C4A89180872084A294610315018FFF7D3
:100C50006AFBE1006118074A8918C87101E00D209C
:100C600090E730468EE70000CE120020636C696387
:100C70006B656400C4110020646F75626C6520634D
:100C80006C69636B656400007072657373656420E2
:100C9000666F72200000000072656C6561736564A8
:100CA00020666F7220000000F3B583B00646002076
:100CB00002900024002500BF18E00B2060433D4A4D
:100CC00081180498FFF7FCFA00280ED1701E40002E
:100CD0003949085A0121A140084381B2701E4000E1
:100CE000354A1152029805B0F0BD641C0A2CE4DBB1
:100CF00000250AE0A800314A81180498FFF7E0FABD
:100D0000002801D10620EEE76D1C042DF2DB012541
:100D10000BE00B2068432A4A81180498FFF7D0FAA9
:100D2000002801D10720DEE76D1C264800788542A7
:100D3000EFDB25482549086015E024480068006875
:100D400007683846FFF7B5FA01903946019A0498CA
:100D5000FFF7DAFA002801D10820C4E71B48006831
:100D600040681A490860194800680028E5D1002445
:100D70000EE00B2060430F49085C002807D10B21CF
:100D800061430C4A88180499FFF7B5FA02E0641C25
:100D90000A2CEEDB00BF701E40000749085A0121F3
:100DA000A140084381B2701E4000034A11520298CC
:100DB00099E70000260600206E0A0020A0350108F1
:100DC000370900208400002044030020F0000020A8
:100DD000F0B58DB005460C4600200C900027574812
:100DE0000078002809D0A100554A50580EF03EF96D
:100DF000A100544A50580EF039F9042052490855C0
:100E00004E480078002805D0204602F06BFE019085
:100E100005F025F903A805AB04AA06A90090204611
:100E200002F0C2FD6846008A079001200890002069
:100E300009900A9007A9069803F07CFC684680890F
:100E40000790002008900220099007A9059803F058
:100E500071FCE00020183D4940184570611E890072
:100E6000EC3149003A4A505A02A901F0F3FD064616
:100E7000002E37D16846008907123811A04206D1EA
:100E80003807000FA84202D100200DB0F0BD2003AA
:100E90002902084380B20290611E8900EC314900AA
:100EA0002B4A505A6946098901F066FE611E890085
:100EB000ED314900264A505A002101F05DFE611EC5
:100EC0008900EE314900224A505A002101F054FEB7
:100ED000611E8900EF3149001D4A505A002101F07E
:100EE0004BFE29E020032902084381B20291611ED2
:100EF0008900EC314900164A505A6946098901F0C7
:100F00003BFE611E8900ED314900114A505A002113
:100F100001F032FE611E8900EE3149000C4A505A40
:100F2000002101F029FE611E8900EF314900084AC5
:100F3000505A002101F020FE0C98A6E79A000020EC
:100F4000501A00206C1A002086000020C4110020D6
:100F500092170020F8B504460E46002700253648B3
:100F600000887D21C900884201DB0E20F8BDE00722
:100F7000C00F00281FD03048008805B20AE02F4873
:100F8000405D01210843A04202D12C48445503E0B2
:100F9000681E05B2002DF2DA00BFF0212648028853
:100FA0000088401C244B188024488154691C88B256
:100FB000FFF726FD3EE0802C02D0822C38D11BE0CA
:100FC00080211D4802880088401C1B4B18801B484C
:100FD000815419460A880988491C1980014650180D
:100FE0003146FFF788F93046FFF763F9124909885F
:100FF0004018114908801CE082210F4802880088AF
:10100000401C0D4B18800D48815419460A880988E8
:10101000491C1980014650183146FFF76CF93046DB
:10102000FFF747F90449098840180349088000E0A0
:1010300000BF00BF384699E71C020020CE120020F6
:10104000F0B587B004460D4616461F467D200001C8
:10105000301AC1B26846C17644768576077600229A
:1010600006A9254804F09CFB002802D0FF2007B009
:10107000F0BD69460E98087168460D994171694640
:101080000C988871002005900E980C2802DD18201D
:101090001A4948730F98012806D100206946087341
:1010A0000C20164948730CE00F98022806D1402006
:1010B000694608730C201149487302E018200F4953
:1010C0004873002201A90C4804F0F8FB002801D065
:1010D000FF20CCE7094A527B1202084B1B791A43C6
:1010E0001146074A908E01F047FD064A0121024849
:1010F00004F08DFA0020BAE72C12002060050020D1
:1011000092190020F232000010B50AF0B3FA02F092
:10111000ADFC01F0E9F906F0D7F906F09FF806F00A
:1011200025FA05F0B7FC002803D001F0CBF906F052
:1011300091FD05F041FD002814D032200BF092F90A
:1011400006F0DCFAE12040022F498860012406E025
:101150002D48816820460CF0D5FA601CC4B2052CDD
:10116000F6DD04E032200BF07DF906F0C7FA06F058
:1011700023F80CF0D5FA2548007800280FD1012279
:10118000D103234803F0E1FBFF20F5300BF06AF9AF
:1011900000220121C9031E4803F0D7FB30E00122E1
:1011A000D1031B4803F0D1FBFF20F5300BF05AF9B7
:1011B00000220121C903164803F0C7FB64200BF08D
:1011C00051F90122D103124803F0BFFB64200BF058
:1011D00049F900220121C9030D4803F0B6FB642040
:1011E0000BF040F90122D103094803F0AEFB642063
:1011F0000BF038F900220121C903054803F0A5FBD3
:1012000001200449087010BD600500208500002001
:10121000000400489A000020FFB583B00D461C462C
:101220000020029000270026FF2D21DA012718E078
:10123000781E40004349085A2841C007C00F0028C3
:101240000DD0701CC6B2A019401C2D2804DAA019BC
:10125000401E3D490F5402E0692007B0F0BD781CE4
:10126000C7B23A4800788742E2DDA01936490E54E9
:10127000FF2D0BD1601C2D2808DA35480078401C62
:10128000C0B2334908703049085518E0FF2D01D12C
:101290006920E2E7FF2D0EDAA019801C2D280ADA5A
:1012A0002B480078401CC1B229480170A019401C8D
:1012B000254A115403E0FF2D01DA6920CDE7FF2D07
:1012C00003D1A01DC0B2029004E0701C2018801D44
:1012D000C0B20290039802F035F80120019027E097
:1012E0001C480078401E41001B48415A0198401E8E
:1012F0000141C807C00F002816D0FF2D0AD102985F
:10130000401F80B20090FF22059B039901980AF0CC
:101310003DFC09E00298401F80B20090FE22059B30
:10132000039901980AF032FC0198401CC0B2019068
:1013300001980528D4DD611C0348FEF78CFF0020CE
:101340008BE700006E0A00209A0B0020840000202A
:101350009800002085000020F4050020F0B585B03D
:1013600007460C460020039000BF00BF00BF601E70
:101370002A490D5C601E32214843294940184078B3
:101380000290601E322148432549401880780102AE
:10139000601E32225043224A8018C078081880B25A
:1013A00001906A1F601E322358431D4BC018011D57
:1013B0001C48FEF737FF029801F0C4FF012624E025
:1013C00019480078401E40001849085A711E08410B
:1013D000C007C00F002816D0FF2F09D1681F80B2A8
:1013E0000090FF223046019B02990AF0CFFB0AE0F1
:1013F000FE2F08D1681F80B20090FE223046019B6C
:1014000002990AF0C3FB701CC6B2052ED8DD691F15
:101410000448FEF720FF039805B0F0BD8C000020C3
:10142000A00A00209A0B002085000020F40500206F
:1014300070B586B000250026012455E2E000201892
:10144000FE4940184078002876D0FD4800780028F2
:1014500003D1E1006118F94A505402A804AB03AA71
:1014600005A90090204602F09FFA00226846818973
:10147000059803F06AFA0A200AF0CCFF6846018951
:10148000049803F055FA00280ED10122684681899C
:10149000059803F05AFA0A200AF0BCFF6846018951
:1014A000049803F045FA05460022684681890598AC
:1014B00003F04BFAE0002018E0494018407801287A
:1014C00006D002280CD0032812D0042820D117E01F
:1014D000012D01D1042602E0002D00D1032618E0E1
:1014E000012D01D1042602E0002D00D1032610E0D9
:1014F000012D01D1022602E0002D00D1012608E0D5
:10150000012D01D1012602E0002D00D1022600E0CC
:1015100000BF00BF042E01D0022E12D1A000C94985
:101520000858C949884208D2A000C6490858401C3A
:10153000A100C44A505004E0D4E10020A100C14AF7
:101540005050032E01D0012E2CD1A000BF490858C5
:10155000BD49884207D2A000BC490858401CA100E0
:10156000BA4A505003E00020A100B84A5050B84891
:10157000007802280BD1B748005DB7494979884205
:1015800005DCB448005D401CB24908550AE0B1488A
:10159000005DB1494979884204DD0020AC490870FA
:1015A000AC490855A000A7490858AB4909888842AA
:1015B00061D3A000A3490858A749098888420BD1E4
:1015C0000720E10061189D4A5054A0009D49085829
:1015D000401CA1009B4A5050A0009C4908589E49BD
:1015E0000988884203D90020A100984A5050A000E1
:1015F0009449085898494988884225D9A0009149BA
:101600000858FF21F53188421ED291480078002801
:1016100003D101208E4908702DE08D480078022802
:1016200029D18C48005D8C490979884223DD89489D
:10163000005D8949497988421DDA03208449087090
:1016400000208449085516E0A0007E490858FF2173
:10165000F53188420FD3A0007A4908587A49884268
:1016600009D27B480078002802D000207849087011
:10167000204600F043F9A0007449085876490988CB
:10168000884255D3A0007149085873490988884297
:101690000BD10820E1006118684A5054A0006B4942
:1016A0000858401CA100694A5050A00065490858DC
:1016B00069490988884203D90020A100614A505035
:1016C000A0006249085864494988884220D9A0008E
:1016D0005E490858FF21F531884219D25C480078EC
:1016E000012808D10520E1006118544A5054022015
:1016F000574908701CE056480078032818D1062086
:10170000E10061184D4A50540020514908700FE023
:10171000A0004E490858FF21F531884208D3A000A7
:101720004A4908584849884202D2204600F020F928
:10173000E00020184149085C401F03000CF045F808
:101740000A182C060F40556A91A6BBD020460CF013
:10175000F9FB0020E1006118384A5054C1E02046EE
:101760000CF0F2FB0020E1006118344A5054B8E05C
:101770003348007800280ED1E00020182F49401887
:10178000007AC007C00F002805D001202C4908703E
:1017900020460CF0D5FBA4E02948007800280ED1A3
:1017A000E000201825494018007A0221084000284E
:1017B00005D001202249087020460CF0C2FB90E0C1
:1017C0001F48007800280FD1E00020181B4940185E
:1017D000007A04210840002806D00120184908702A
:1017E000012120460CF0AFFB7BE015480078002873
:1017F0000FD1E000201811494018007A0821084054
:10180000002806D001200E490870022120460CF065
:101810009AFB66E00A480078002821D1E0002018F1
:1018200006494018007A10210840002818D00120ED
:10183000034908700321204610E00000C411002075
:10184000B0000020FC110020FFFF00001412002057
:10185000E7000020A9000020600500200CF073FBC9
:101860003FE02448007800280FD1E00020182249EA
:101870004018007A20210840002806D001201D4988
:101880000870012120460CF060FB2AE0194800781E
:1018900000280FD1E000201817494018007A402195
:1018A0000840002806D00120124908700221204675
:1018B0000CF04BFB15E00F48007800280FD1E0003A
:1018C00020180D494018007A80210840002806D0D1
:1018D000012008490870032120460CF036FB00E087
:1018E00000BF00BF601CC4B2052C00DCA6E506B03A
:1018F00070BD0000B0000020C4110020F0B501460A
:101900000020CD004D19184EAD19AA78CD004D1903
:10191000AD19EB78CD004D19AD192C797D25ED0071
:101920006A436B436C438D00104E7559954205D147
:101930000925CE008E190C4FBD5514E08D000B4EBD
:1019400075599D4205D10A25CE008E19064FBD5509
:1019500009E08D00054E7559A54204D10A25CE0037
:101960008E19014FBD55F0BDC4110020FC1100209F
:10197000F0B501460020CD004D19184EAD196A7919
:10198000CD004D19AD19AB79CD004D19AD19EC79DC
:101990007D25ED006A436B436C438D00104E7559F5
:1019A000954205D10C25CE008E190C4FBD5514E083
:1019B0008D000B4E75599D4205D10D25CE008E1917
:1019C000064FBD5509E08D00054E7559A54204D15D
:1019D0000D25CE008E19014FBD55F0BDC41100205C
:1019E0001412002070B5002532211048FEF733FC98
:1019F000012415E0601E40000C49085A002809D057
:101A0000621E52000B46995A621C5200084B985AAB
:101A100001F0B2F8A01C1C2800DB0A25601CC4B22F
:101A2000044800788442E5DD284670BDBA080020ED
:101A3000921700208400002070B500240025114971
:101A40001148FEF708FC01201049087000201049D9
:101A5000087002F059FE0F4801F0FAFB0E4801F041
:101A60003DFC0546002D03D00C48C069C0B270BDD6
:101A70000B480069022188430949086102F0DCFD36
:101A8000E0B2F4E726020000940600208400002063
:101A90008500002000D8010850C30000F004002099
:101AA0000020024010B50A4802F06EF809480068AC
:101AB000002804D008480068401C07490860064810
:101AC000006804490968884201D30AF029FE10BD64
:101AD000781E0020340300202803002010B514488D
:101AE0000068202108404009002803D0114802F076
:101AF0004BF81BE010480068012149020840400AE9
:101B0000002813D00D4802F03FF80D480068002867
:101B100004D00C480068401C0A4908600948006865
:101B200007490968884201D30AF030FE10BD000061
:101B300000040240401E002000000240B01E0020B1
:101B4000380300202C03002010B51A48006801213A
:101B500049040840400C002803D0174802F014F84C
:101B600027E014480068012149050840400D00287D
:101B700003D0124802F008F81BE011480068012168
:101B800049020840400A002813D00E4801F0FCFF2B
:101B90000D480068002804D00C480068401C0B4920
:101BA00008600A48006808490968884201D30AF0B9
:101BB00023FE10BD00000240D01D0020081E0020A2
:101BC00000040240E81E00203C03002030030020F7
:101BD00010B5046863604468102C04D10468A260E6
:101BE0000468E16003E00468A1600468E26010BD7D
:101BF000F8B50646002701F055FD05468DA0007892
:101C000028708D4802788DA193480BF0B3FD92495E
:101C10002846FEF72BFB9148027891A18E480BF0E5
:101C2000A9FD8D492846FEF721FB0420012300224F
:101C300092A1009088480BF09DFD87492846FEF749
:101C400015FB96A298A184480BF094FD8249284682
:101C5000FEF70CFB9AA29DA17F480BF08BFD7E49FD
:101C60002846FEF703FBA0A17B480BF083FD7A49D1
:101C70002846FEF7FBFA012432E022469FA176486F
:101C80000BF078FD74492846FEF7F0FA9D48005D98
:101C900003000BF09AFD0504090E13181D009AA10C
:101CA0006D480BF067FD14E099A16B480BF062FDE5
:101CB0000FE09DA168480BF05DFD0AE09DA166481C
:101CC0000BF058FD05E0A2A163480BF053FD00E0C6
:101CD00000BF00BF60492846FEF7C8FA601CC4B2C6
:101CE000052CCADDA2A15C480BF044FD5A492846E8
:101CF000FEF7BCFAA64800684068002804D1A5A1F8
:101D000055480BF037FD0FE0AA49086801F020FEA6
:101D100004469F49486A01F01BFE23460246A6A1DD
:101D200000904D480BF026FD4B492846FEF79EFAE1
:101D3000AE4800684068002804D1ADA146480BF0C9
:101D400019FD0FE09B49486801F002FE0446A749CF
:101D5000486A01F0FDFD23460246ADA100903E48D1
:101D60000BF008FD3C492846FEF780FAB5480068AC
:101D70004068002804D1B4A137480BF0FBFC0FE009
:101D80008C49886801F0E4FD0446AE49486A01F0D8
:101D9000DFFD23460246B4A100902F480BF0EAFC79
:101DA0002D492846FEF762FA53A12846FEF75EFA4F
:101DB000BAA12846FEF75AFA2846FEF77AFA87B201
:101DC000012417E01C480078401E4000BB49085A17
:101DD000611E0122D2030A411040002808D0224689
:101DE000B7A11D480BF0C6FC1B492846FEF73EFA7A
:101DF000601CC4B2052CE5DD2846FEF75AFAB8424D
:101E000003D1B1A12846FEF731FA3BA12846FEF7DF
:101E10002DFA002E0CD02846FEF74BFA84B2002093
:101E2000C043322322462946009030460FF0ACFAD8
:101E3000F8BD000000000000850000200A0D2A2ADD
:101E40002A204D6F64756C6520256420537461747D
:101E50007573202A2A2A0A00100500209900002004
:101E60000A0D436F6E6E6563746564207669612048
:101E7000706F72743A205025640A0D000A0D46698D
:101E8000726D776172652076657273696F6E3A2044
:101E900025642E25642E2564000000005365702003
:101EA00031372032303138000A0D4669726D776162
:101EB000726520646174653A20202020257300003B
:101EC00032303A35383A3532000000000A0D4669A2
:101ED000726D776172652074696D653A20202020EB
:101EE00025730A0D000000000A0D506F72747320F4
:101EF0005374617475733A0A0A0D00005025643AF0
:101F00002000000086000020467265650A0D000072
:101F1000526563656976696E67206D657373616785
:101F200065730A0D0000000053747265616D696E7F
:101F3000670A0D00526563656976696E672075737F
:101F4000657220636F6D6D616E64730A0D00000031
:101F5000436F6E6E656374656420746F20612062E8
:101F60007574746F6E2F7377697463680A0D00005F
:101F70000A0D506F72742D746F2D706F727420443F
:101F80004D4173205374617475733A0A0D0000005B
:101F9000781E00200A0D506F72742D746F2D706FB3
:101FA000727420444D41203120697320667265654A
:101FB00000000000201F00200A0D506F72742D7465
:101FC0006F2D706F727420444D4120312069732051
:101FD00073747265616D696E672066726F6D2050F3
:101FE000256420746F20502564000000B01E00207E
:101FF0000A0D506F72742D746F2D706F72742044BF
:102000004D41203220697320667265650000000032
:102010000A0D506F72742D746F2D706F727420449E
:102020004D4120322069732073747265616D696E51
:10203000672066726F6D2050256420746F205025D4
:1020400064000000E81E00200A0D506F72742D74A9
:102050006F2D706F727420444D41203320697320BE
:1020600066726565000000000A0D506F72742D7471
:102070006F2D706F727420444D412033206973209E
:1020800073747265616D696E672066726F6D205042
:10209000256420746F205025640000000A0D5468E8
:1020A00065736520706F727473206172652072654C
:1020B0007665727365643A2000000000BA0800205B
:1020C00050256420000000004E6F6E650000000087
:1020D000F8B5064627A12E480BF04CFB2C48FEF71E
:1020E000E8F884B20020C0433223224628490090F9
:1020F00030460FF049F9012425E001251FE0601E5C
:1021000040002449085A691E0122D2030A411040A6
:10211000002812D02B4622461FA11D480BF02AFB97
:102120001B48FEF7C6F887B20020C04332233A4668
:102130001749009030460FF027F9681CC5B20A2DE8
:10214000DDDD601CC4B2194800788442D5DD18A1D9
:102150000F480BF00FFB0E48FEF7ABF884B20020DF
:10216000C043322322460A49009030460FF00CF952
:10217000F8BD00000A0D546865736520706F7274B5
:1021800073206172652072657665727365643A00CA
:1021900010050020BA0800200A0D4D6F64756C65AB
:1021A000202564203A20502564000000840000208F
:1021B0000A0A0D416C6C206F7468657220706F7232
:1021C000747320617265206E6F726D616C0A0D0010
:1021D000F8B5064658A15D480BF0CCFA5B48FEF70F
:1021E00068F884B20020C043322322465749009049
:1021F00030460FF0C9F8012413E0224654A1534899
:102200000BF0B8FA5148FEF754F885B20020C043ED
:1022100032232A464D49009030460FF0B5F8601C35
:10222000C4B2052CE9DD0020C043322303224AA1B9
:10223000009030460FF0A8F800246EE0621C47A121
:1022400042480BF097FA4148FEF733F885B2002078
:10225000C04332232A463D49009030460FF094F89F
:1022600016206043404A105A062250433F4A8118C4
:1022700005223648FEF706F80020C0433223052227
:102280003249009030460FF07FF80020C0433223DF
:1022900001222DA1009030460FF076F801252FE0A5
:1022A00016206043304940186900405A002805D183
:1022B00000222FA125480BF05DFA12E016206043A2
:1022C000294940186900405C43075B0F16206043B2
:1022D000254940186900405AC21026A11B480BF03E
:1022E00049FA1A48FDF7E5FF87B20020C0433223C0
:1022F0003A461649009030460FF046F8681CC5B2C1
:10230000052DCDDD0020C043322302221BA1009009
:1023100030460FF039F8601CC4B219480078844286
:102320008CDB0020C0433223012216A100903046EE
:102330000FF02AF8F8BD00000A0D284D6F64756C87
:10234000653A506F727429090900000010050020D9
:1023500050256409000000000A0A0D004D6F6475E5
:102360006C652025643A0900940600204035010878
:102370002564090025643A25640900000A0D00005F
:10238000840000200A0000000346062106221448AB
:10239000018814480288002B15D0012B1DD1002A7A
:1023A00006D11148814201D1002070470220FCE78C
:1023B000002906D10C48824201D10220F5E7002015
:1023C000F3E7AB20F1E7002901D10020EDE7002A77
:1023D00001D10220E9E7AB20E7E70020E5E70000B4
:1023E00000E0010800F00108EEEE000010B5002446
:1023F00002F08AF92C4800F02BFF2C4800F06EFF09
:102400000446002C03D02A48C06980B210BD294878
:1024100000F01EFF254800F061FF0446002C03D0A9
:102420002348C06980B2F1E723480069022188434C
:1024300021490861002213461B49012002F006F9D8
:102440001A4800F04BFF0446002C03D01848C0691E
:1024500080B2DBE71848006940084000164908616F
:10246000164800F0F5FE114800F038FF0446002C35
:1024700003D00F48C06980B2C8E7114800F0E8FEF9
:102480000A4800F02BFF0446002C03D00848C0691E
:1024900080B2BBE70848006940084000064908616F
:1024A00002F0CAF82046B1E700E0010850C300007E
:1024B000F004002000E801080020024000F00108BC
:1024C00000F8010810B50648006B0649884206D09E
:1024D000FFF78CFF002802D102480149086310BDB4
:1024E000C07F0020ADDEEFBEFEB5062002900626BE
:1024F0000025002001900027401E0090012402F0DA
:1025000003F9012003E04200EC4B9852401CFF21EC
:1025100037318842F7DDEA4800880290E9480688AA
:102520000298002872D0E8494018002872D0E74984
:10253000401800286CD1002E20D1E14800F088FE20
:10254000E34800F0CBFE0446002C03D0E148C0690C
:1025500080B2FEBDE04800F07BFEDD4800F0BEFE2C
:102560000446002C03D0DB48C06980B2F1E7DB48A9
:10257000006902218843D94908614AE0D2484042B3
:10258000864236D1CE4800F063FED14800F0A6FE68
:102590000446002C03D0CF48C06980B2D9E7CE48AA
:1025A00000F056FECA4800F099FE0446002C03D005
:1025B000C848C06980B2CCE7C84800690221884396
:1025C000C649086100221346BE49012002F03EF8C8
:1025D000BF4800F083FE0446002C03D0BD48C0690C
:1025E00080B2B6E7BD48006940084000BB490861B9
:1025F0000FE0FFF7FBFE0446B54800F06FFE04460F
:10260000002C06D0B348C06980B2A2E7B0E001E078
:1026100043E14EE1002E63D1002526E0A848C088A2
:102620006900A64A515A884201D128B20090009808
:10263000854218D06900A14A505AA94900F00AFA07
:102640000746012F0FD069009C4A505AA4490988B7
:1026500000F032FA01909E4800F040FE0446002C43
:1026600001D0019875E7681C85B2FF20373085429C
:10267000D4DB002213469249012001F0E7FF944881
:1026800000F02CFE0446002C03D09248C06980B2B2
:102690005FE7924800694008400090490861894816
:1026A00000F0D6FD8A4800F019FE0446002C03D045
:1026B0008848C06980B24CE78A4800F0C9FD844868
:1026C00000F00CFE0446002C03D08248C06980B2A2
:1026D0003FE782480069022188438049086146E05B
:1026E0008148864236D1774800F0B2FD784800F044
:1026F000F5FD0446002C03D07648C06980B228E777
:10270000784800F0A5FD724800F0E8FD0446002C72
:1027100003D07048C06980B21BE77048006902218D
:1027200088436E490861002213466549012001F083
:102730008DFF674800F0D2FD0446002C03D06548A9
:10274000C06980B205E765480069400840006349F8
:1027500008610CE0FFF74AFE04465D4800F0BEFD4C
:102760000446002C03D05B48C06980B2F1E6A0E0CB
:10277000002E0AD1FFF73AFE0446554800F0AEFDA0
:102780000446002C24D02046E3E65748864220D158
:102790004C4800F05DFD4E4800F0A0FD0446002CC2
:1027A00003D04C48C06980B2D3E64E4800F050FDDB
:1027B000474800F093FD0446002C03D04548C0690B
:1027C00080B2C6E645480069022188434349086152
:1027D00062E0002526E03B48C0886900374A515A2C
:1027E000884201D128B200900098854218D0690033
:1027F000324A505A3A4900F02DF90746012F0FD0BE
:1028000069002E4A505A3649098800F055F901905E
:102810002F4800F063FD0446002C01D0019898E693
:10282000681C85B2FF2037308542D4DB0022134676
:102830002449012001F00AFF254800F04FFD04461D
:10284000002C03D02348C06980B282E62348006987
:102850004008400021490861194800F0F9FC1C4873
:1028600000F03CFD0446002C03D01A48C06980B239
:102870006FE6194800F0ECFC154800F02FFD044607
:10288000002C03D01348C06980B262E61348006987
:1028900002218843114908610BE0FFF7A7FD0446B8
:1028A0000B4800F01BFD0446002C01D0204650E6EA
:1028B00000BF00BF01F0C0FE00204AE692170020D2
:1028C00000E0010800F001081211FFFFEFEEFFFF2A
:1028D00050C30000F004002000E80108002002407E
:1028E0002C02002000F80108FFFF0000F3B585B0BE
:1028F0000746002400200490039002900025002643
:10290000019001F001FF0020FFF73EFD02900298C8
:10291000022804D147480490474803900AE00298EF
:10292000002804D1444804904248039002E0AB20C0
:1029300007B0F0BD414A00230120049901F086FE52
:102940003F4800F0CBFC0446002C03D03D48C06952
:1029500080B2EDE73C480069400840003A49086110
:102960003846069900F0A8F80646002E01D03046F9
:10297000DEE700251CE068003449085AB84215D04B
:102980006900324A505A324900F064F801900198C7
:1029900001280BD069002D4A505A2D49098800F0B2
:1029A0008BF80646002E01D03046C1E7681C85B280
:1029B000FF2037308542DEDB039800F049FC2048D9
:1029C00000F08CFC0446002C03D01E48C06980B285
:1029D000AEE70121C9020398401800F039FC1848FD
:1029E00000F07CFC0446002C03D01648C06980B27D
:1029F0009EE71548006902218843134908610022B7
:102A000013460120049901F021FE0D4800F066FCF8
:102A10000446002C03D00B48C06980B288E70A48FE
:102A20000069400840000849086101F005FE2046A1
:102A30007EE7000000E0010800F00108EEEE000073
:102A400050C30000F0040020002002409217002034
:102A50002C020020FEB506460F46002514480290C1
:102A600001200190002400200090FFF78DFC054616
:102A7000AB2D00D1FEBDE8020E4940180090A81C05
:102A8000C002891E44180CE0208802900298B042CF
:102A900006D120464038C08F38800020019004E0E5
:102AA000241F0098801C8442EED800BF0198E1E703
:102AB0005555000000E00108FEB505460E46002011
:102AC000019000270024009001F01EFE0120FFF776
:102AD0005BFC0746AB2F00D1FEBDF802224944182B
:102AE000B81CC002891E4018009036E02068401CC7
:102AF000002831D1324600232146012001F0A6FDF5
:102B00001A4800F0EBFB01900198002803D0184808
:102B1000C06980B2E0E717480069400840001549E5
:102B200008612A460023A11C012001F08FFD0F48F7
:102B300000F0D4FB01900198002803D00C48C06934
:102B400080B2C9E70B4800694008400009490861A4
:102B50000748C06980B2BFE7241D00988442C5D3EE
:102B600001F06AFD8020B7E700E0010850C30000D3
:102B7000F00400200020024070B505460E460024F7
:102B800001F0C2FD31462846FFF796FF0446802C2F
:102B900004D131462846FFF7A9FE044601F04CFD5A
:102BA000204670BDFEB500200290002400F07AFDA2
:102BB000019000BF3DE02248005DC007C00F002823
:102BC00035D01F48005DFE21084080282DD1611CB2
:102BD00088B205F00BFD002826D1651C1FE01848BF
:102BE000405D822815D11649681C0F1800BF0122CC
:102BF00052023846019900F08DFD0646002EF6D1AE
:102C00000198FDF756FB014600900198FDF723FB64
:102C100004E00B48405DF02800D104E06D1C094839
:102C200000888542DBDD00BF00E000BF00BF601C04
:102C300084B2044800888442BDDD0298FEBD0000D5
:102C4000CE1200201C020020F0B589B000200890B0
:102C50000027079006900590002400250490002688
:102C600003900120FE49087002900FE0FD490978A9
:102C70000298884206D0029800F034FF01210190AA
:102C800009F01EFE0298401CC0B20290029805286E
:102C9000ECDDF448007800F0A1FA0220F249087057
:102CA0000127012625E0701E8000F049085A0028FF
:102CB0001DD0781CC0B20746ED494870ED4807703A
:102CC0000020087003201023002211460090304697
:102CD00008F05CFF3902701E8000E44A105C08189E
:102CE00081B2701E800011520A200CF093F9701C02
:102CF000C6B2052ED7DDE0480088E04908800126ED
:102D000031E0701E8000D949085A002829D0701E71
:102D10008000085A0390039800120690701E8000ED
:102D2000085C05900698C100059801437000D34ADD
:102D30001152701E8000CD49401841880698401EEF
:102D400016225043CD4A1152C5480078C100314384
:102D50000698401E16225043C84A82180598400023
:102D60001152701CC6B2052ECBDD022412E00B20DE
:102D700078434200C149BE48FDF754FA0B2078431E
:102D800042001121204608F0BFFF3C200CF042F920
:102D9000601CC4B2BC42EADDC0E007970224BAE07E
:102DA000012005E00122411EB14B5A54411CC8B21A
:102DB0000A28F7DD0020AE4988720B220E2120463A
:102DC00008F0A2FF0A200CF025F900220C21204671
:102DD00008F09AFF64200CF01DF901252DE0681E13
:102DE0008000A749085A03900398001206900398A0
:102DF000002820D0069800281DD1781CC0B20746B4
:102E00009B4948709B4807703902681E80009C4AA5
:102E1000105C081881B2681E80001152012094498C
:102E200008700846857003221021204608F06CFFC8
:102E30000A200CF0EFF8681CC5B20A2DCFDD012581
:102E40004AE0681E80008E49085A002842D0681E59
:102E50008000085A0390039800120690681E8000B4
:102E6000085C05900698012834D0601E162148435E
:102E7000824940186900405A00280AD10698C100CA
:102E800005980143601E162250437C4A80186A0050
:102E900081520698401E16214843784941180598EA
:102EA0004000085A002815D1681E80007449401857
:102EB00041880698401E16225043704A1152E10084
:102EC00029430698401E162250436C4A82180598E2
:102ED00040001152681CC5B20A2DB2DD2821684895
:102EE000FDF7B9F9022512E00B207843420063494F
:102EF0005F48FDF797F90B207843420011212846DF
:102F000008F002FF3C200CF085F8681CC5B2BD42F9
:102F1000EADD601CC4B2BC4200DC41E70798B8425D
:102F200000D03AE74F48007800F058F9012411E04A
:102F3000601E80004D49085A0390039800120690C5
:102F40000398002804D00698002801D10520089095
:102F5000601CC4B2052CEBDD02241FE000220C2112
:102F6000204608F0D1FE64200CF054F8012511E051
:102F7000681E80004249085A039003980012069088
:102F80000398002804D00698002801D10520089055
:102F9000681CC5B20A2DEBDD601CC4B2BC42DDDD8D
:102FA0000898002870D101260AE036480188701E72
:102FB0000122D2030241914332480180701CC6B203
:102FC000052EF2DD3C46A9E0012004907CE0601E65
:102FD000162148432949411804984000085A0028FE
:102FE00013D100210498401E214A1154601E400054
:102FF0002449095A0498401E0122D20302419143F8
:10300000601E40001F4A11525AE0601E16214843BC
:103010001A49411804984000085A03900398400543
:10302000000E069003984007400F05900698401E3A
:1030300040001449095A0598401E0122D20302415A
:103040001140002929D101210498401E084A115439
:10305000601E40000B49095A0498401E012214E0EA
:10306000850000209900002036000020B8050020CF
:103070009A0B0020840000203400002094060020D9
:10308000CC050020BA0800205CE0D20302411143C5
:10309000601E4000494A115212E000210498401E6F
:1030A000474A1154601E40004449095A0498421E80
:1030B0000120C00310418143601E40003F4A11526D
:1030C0000498401CC0B2049004980A2800DC7EE7F3
:1030D0002146012000F0D6F9601E3A49085C401EE6
:1030E0003949085C06902046069900F0CBF9059016
:1030F0000698A04205D00598401E3149085C012879
:1031000002D101202E4988720B220E21204608F0A0
:10311000FBFD0A200BF07EFF601EC4B2022C00DB18
:1031200052E701260CE029480078864206D0304656
:1031300000F0D8FC0021029009F0C2FB701CC6B25E
:10314000052EF0DD0898002826D164200BF062FFE0
:1031500040201F49887102241AE0002201212046E4
:1031600008F0D2FD611E174A515CFF222D325143F7
:1031700008460BF04FFF17480088002801D108903F
:1031800004E014480088022800D10890601CC4B2F2
:10319000114800788442E0DD089800280BD108F03F
:1031A00083FC08F05BFC64200BF034FF0022152147
:1031B000FF2008F0A9FD089809B0F0BDBA0800206A
:1031C0009A0B0020EC0800201E0900209900002026
:1031D000600500209600002084000020F8B5054618
:1031E0000026012418E0AC4214D00D4800880012DB
:1031F0000C4908700A48007848700846847003201B
:103200000A23002211460090204608F0BFFC0A2045
:103210000BF000FF601CC4B2052CE4DD3046F8BDA5
:10322000340000209A0B002000200749C86107489D
:1032300000690421084305490861084600694021E6
:103240000843024908617047F00400200020024052
:103250000021084AD1610849096902221143064A3E
:10326000116111464861096940221143024A116106
:1032700070470000F0040020002002400022054BAF
:10328000DA61054A126901231A43034B1A6101806E
:1032900070470000F0040020002002400D48C06884
:1032A00010210840102805D10B48C06902210843AD
:1032B0000949C8610748C06804210840042805D1AD
:1032C0000548C069012108430349C8611420014928
:1032D000C860704700200240F004002070B504462A
:1032E00001F048FB05460BE0601C002808D0002CCC
:1032F00004D001F03FFB401BA04201D9032070BD68
:103300000F48C068C007C00F0028EDD10C48C06846
:1033100020210840202801D10949C8600848C06818
:1033200010210840102805D00548C0680421084035
:10333000042803D1FFF7B2FF0120E0E70020DEE719
:1033400000200240F1B584B0002001900025002447
:103350000027009048480078029002980BF06CFD1E
:10336000064600BF06E0002030556100434A505237
:10337000601CC4B2404800788442F4DB781CC1B2BF
:103380000F460498401E3154781CC7B2012525E031
:103390000498401E16214843394940186900405A94
:1033A000002819D00498401E40003449085A691E6C
:1033B00001228A40104381B20498401E40002F4AE7
:1033C00011520498401E162148432D4940186900A7
:1033D000405AC010401E3754681CC5B2052DD7DDB9
:1033E00000BF00200090781CC7B2002435E0315D9A
:1033F000781E81422FD101252BE016206043204901
:1034000040186900405A002821D0162060431C490A
:1034100040186900405AC010401E305C002816D188
:1034200060001649085A691E01228A401043610053
:10343000124A505216206043114940186900405A00
:10344000C010401E37540098401CC0B20090681C49
:10345000C5B2052DD1DD601CC4B207480078844296
:10346000C5DB00980028BCD10198039030460BF0D2
:1034700027F9039805B0F0BD84000020F405002072
:1034800094060020F0B58FB005460E46342102A800
:10349000FCF7E1FE00200190002400270090192194
:1034A0005648FCF7D8FE0021681E554A1154554A6B
:1034B000115401211CE0681E16225043524A801804
:1034C0004A00805A002812D0681E162250434E4AE5
:1034D00080184A00805AC010B04208D10122701EE4
:1034E000474B1A5445480670C8B20FB0F0BD491C8E
:1034F0000629E0DD012009E0A84206D0FF22411E96
:103500003F4B5A5400223F4B5A54401C3F490978C4
:103510008842F1DD3BE002A939480BF0C3FC401CB6
:10352000C4B2B44200D138E00121601E02AA115495
:1035300001202AE0611E16225143334A89184200B5
:10354000895A00291FD0611E162251432E4A89181C
:103550004200895A49050F0E791E02AA515C0029C2
:1035600011D1611E264A515C491CC9B20191791ED4
:10357000525C01998A4206DD7A1E214B01999954C9
:10358000791E204A5454411CC8B20628D2DD02A834
:1035900007F0D2FA0028BED000BF08E00098411C16
:1035A000C9B2009115490C54601E16490C5C601E8E
:1035B0001449085C0028F1D101211BE0681E162285
:1035C0005043114A80184A00805A002811D0681EC2
:1035D000162250430C4A80184A00805AC210701EAE
:1035E000074B185C401E054B185C824201D1C8B2E3
:1035F0007BE7491C0629E1DD002076E71E09002053
:10360000EC0800200509002094060020840000201A
:10361000FEB50446002600BF00BF00BF00BF601E0D
:103620001C490D5C322148431B4940184778601EF5
:10363000322148431849401880780102601E322226
:103640005043154A8018C078081880B201906A1F4C
:10365000601E32235843104BC018011D0F48FCF761
:10366000E1FD601E322250430B4A115C0C48007889
:10367000FFF708FF0290681F80B20090601E3221A1
:10368000484305490A5C3946019B029808F07EFAD6
:103690003046FEBD8C000020A00A00209A0B0020BE
:1036A00085000020004870477C1F002030B503468D
:1036B000002400200025156027E000E05B1C1D7839
:1036C000002D02D01D78202DF8D100E05B1C1D7864
:1036D000002D02D01D78202DF8D01D78002D13D09C
:1036E000641C8C4211D1184603E015686D1C1560EE
:1036F0005B1C1D78002D02D01D78202DF5D115689A
:10370000002D00D1002002E001E08C42D5D300BFA3
:1037100030BD0000F7B50546012631480068002895
:1037200035D130482E4908602CE02D4800680068EB
:1037300007683846FCF7BDFD0446285D202802D006
:10374000285D002819D1224639462846FCF7DCFDC1
:10375000002812D12248006800680C214156002937
:103760000ADB28460BF028FD1D49096809680C2270
:103770008A56904200D0002608E019480068406848
:1037800017490860164800680028CED100BF1448C9
:10379000006800280AD0002E08D11349029A019827
:1037A000FCF770FD00200E49086017E00C48006827
:1037B00000280DD00A48006800682A4683680299EC
:1037C000019898470646002E08D10549086005E093
:1037D0000649029A0198FCF755FD00263046FEBDC9
:1037E00050030020440300206C5A0108C45A010809
:1037F00070B505460026002D02D172B600BFFEE767
:1038000008200FF0BFFD0446002C02D172B600BFA5
:10381000FEE7002C0CD00DF09FFC256000206060BE
:10382000044800684460034804600DF0A3FC0126CE
:10383000304670BD4C03002000BFFEE71CB51E20C3
:103840000BF0FAFA04461E212046FCF704FD094855
:10385000008B0849497D009101900648837D007DD9
:10386000401E800004490A580449204609F082FF9E
:1038700020461CBD600500206800002010370108AC
:1038800070B50546002600242BA12846FCF718FD3C
:10389000002802D12948007870BD29A12846FCF7EC
:1038A0000FFD002801D1FF20F6E72878232815D145
:1038B000681CFCF745FDC6B2002E05DD21480078E6
:1038C000864201DC3046E7E71C480078864202D198
:1038D0001A480078E0E70120C043DDE700240FE04C
:1038E0000B206043184A81182846FCF7E9FC0028A1
:1038F00004D12878002801D0601CCDE7601CC4B238
:10390000104800788442EBDB00240FE00B2060437A
:103910000E4A81182846FCF7D3FC002804D1200267
:10392000FE21084300B2B7E7601CC4B20A2CEDDBED
:103930000020C043B0E700006D6500008500002056
:10394000616C6C00840000203709002026060020EE
:103950000146104A0868904201D1012070470E4A82
:103960000868904201D10220F8E70C4A08689042AA
:1039700001D10320F2E70A4A0868904201D10420ED
:10398000ECE7084A0868904201D10520E6E70020EC
:10399000E4E70000004C00400044004000480040C4
:1039A0000038014000500040FFB581B00C461D4674
:1039B0000A9E00200090019800F094F807462548E0
:1039C00087420CD10920C0062060012040021080EF
:1039D0000920C006286001208002308037E01E48A0
:1039E00087420AD10920C0062060042010800920E7
:1039F000C00628600820308029E0184887420AD194
:103A0000174820600120800210801548286001209E
:103A1000C00230801BE0134887420AD10920C0064B
:103A20002060012010800920C0062860022030801C
:103A30000DE00D48874208D1094820600820108019
:103A4000074828601020308001E0FF200090009897
:103A500005B0F0BDD81A0020481B0020B81B00207C
:103A600000040048281C0020981C002000B587B0E6
:103A7000002201A9194801F001FE002206A91748F9
:103A800001F0CEFD6846007BC011401C1449C8748B
:103A90000298C003000CC8816846817910480174FF
:103AA000684641790E484174684601790C48817432
:103AB0006846817E0A4841756846417E084881759E
:103AC0006846007E064908756846C07E7D2109016A
:103AD00041180348018307B000BD00002C120020EC
:103AE0006005002000B501460B0009F06EFE060ED1
:103AF0000406080A0C0E064800BD0648FCE7064806
:103B0000FAE70648F8E70648F6E70020F4E7000081
:103B1000281C0020481B0020B81B0020D81A0020B9
:103B2000981C002070B504460025206800684008F5
:103B300040002168086000F01DFF054614E000F019
:103B400019FF401B7D21C90088420DD9606B2021DF
:103B50000843606303212120015500BF002120207C
:103B6000015500BF032070BD20680068C007C00F6A
:103B70000028E4D101212120015500BF002120208F
:103B8000015500BF0020EEE710B50446F849206853
:103B9000884255D9F7480068F54A783A2168914239
:103BA00001D108214AE0F24A643A2168914201D1E8
:103BB000802143E0EE4A503A2168914201D1C91474
:103BC0003CE0EB4A3C3A2168914202D10121C90311
:103BD00034E0E74A283A2168914202D10121C90420
:103BE0002CE0E34A143A2168914202D10121C9052F
:103BF00024E0DF4A2168914201D109051EE0DD4A37
:103C000008322168914201D1082117E0D94A1C32BB
:103C10002168914201D1802110E0D64A30322168DA
:103C2000914201D1C91409E0D24A4432216891423B
:103C300002D10121C90301E00121C904084055E076
:103C4000CB4880380068CA4A783A2168914201D14D
:103C500008214AE0C64A643A2168914201D1802194
:103C600043E0C34A503A2168914201D1C9143CE073
:103C7000BF4A3C3A2168914202D10121C90334E094
:103C8000BB4A283A2168914202D10121C9042CE0A3
:103C9000B74A143A2168914202D10121C90524E0B2
:103CA000B34A2168914201D109051EE0B14A0832A8
:103CB0002168914201D1082117E0AE4A1C322168E7
:103CC000914201D1802110E0AA4A3032216891420C
:103CD00001D1C91409E0A74A44322168914202D1B6
:103CE0000121C90301E00121C9040840002872D064
:103CF0002068006808210840C0080028F7D0206824
:103D0000006888432168086099492068884254D92E
:103D1000974978392068884201D108204AE09449BF
:103D200064392068884201D1802043E090495039AD
:103D30002068884201D1C0143CE08D493C3920689C
:103D4000884202D10120C00334E089492839206823
:103D5000884202D10120C0042CE085491439206832
:103D6000884202D10120C00524E0814920688842B0
:103D700001D100051EE07F4908312068884201D149
:103D8000082017E07B491C312068884201D180203F
:103D900010E0784930312068884201D1C01409E030
:103DA000744944312068884202D10120C00301E0F7
:103DB0000120C0046F49486055E06D49783920689A
:103DC000884201D108204BE0694964392068884263
:103DD00002D1802044E058E065495039206888428B
:103DE00001D1C0143CE062493C392068884202D1CC
:103DF0000120C00334E05E4928392068884202D19E
:103E00000120C0042CE05A4914392068884202D1AC
:103E10000120C00524E056492068884201D10005F0
:103E20001EE0544908312068884201D1082017E07B
:103E300050491C312068884201D1802010E04D4952
:103E400030312068884201D1C01409E04949443129
:103E50002068884202D10120C00301E00120C00493
:103E6000434980394860606B012108436063042145
:103E70002120015500BF00212020015500BF206BEB
:103E8000002802D02046216B8847394920688842A3
:103E900055D938480068364A783A2168914201D1AC
:103EA00004214AE0324A643A2168914201D140211A
:103EB00043E02F4A503A2168914201D109153CE074
:103EC0002B4A3C3A2168914202D10121890334E016
:103ED000274A283A2168914202D1012189042CE025
:103EE000234A143A2168914202D10121890524E034
:103EF0001F4A2168914201D1C9041EE01D4A0832BF
:103F00002168914201D1042117E01A4A1C3221682C
:103F1000914201D1402110E0164A3032216891428D
:103F200001D1091509E0134A44322168914202D1B6
:103F30000121890301E001218904084059E00C486E
:103F4000803800680A4A783A2168914201D10421F8
:103F50004EE0074A643A2168914201D1402147E08E
:103F6000034A503A2168914206D1091540E0000009
:103F70008000024000040240F74A2168914202D1C9
:103F80000121890334E0F44A14322168914202D1BC
:103F9000012189042CE0F04A28322168914202D1A3
:103FA0000121890524E0EC4A3C322168914201D18B
:103FB000C9041DE0E94A2168914201D1042117E0BA
:103FC000E64A14322168914201D1402110E0E34ACF
:103FD00028322168914201D1091509E0DF4A3C32BB
:103FE0002168914202D10121890301E00121890464
:103FF0000840002873D02068006804210840800829
:1040000000286CD02068006820210840002805D1D5
:10401000206800680421884321680860CE493C314B
:104020002068884254D9CC493C392068884201D163
:10403000042049E0C84928392068884201D140203D
:1040400042E0C54914392068884201D100153BE09F
:10405000C1492068884202D10120800334E0BE4972
:1040600014312068884202D1012080042CE0BA4932
:1040700028312068884202D10120800524E0B64919
:104080003C312068884201D1C0041DE0B34920685A
:10409000884201D1042017E0B049143120688842D9
:1040A00001D1402010E0AD4928312068884201D17B
:1040B000001509E0A9493C312068884202D101205D
:1040C000800301E001208004A4490839486054E0DD
:1040D000A1493C392068884202D104204AE055E0D9
:1040E0009D4928392068884201D1402042E09A4900
:1040F00014392068884201D100153BE096492068B8
:10410000884202D10120800334E0934914312068B1
:10411000884202D1012080042CE08F492831206898
:10412000884202D10120800524E08B493C3120687F
:10413000884201D1C0041DE088492068884201D12D
:10414000042017E0854914312068884201D14020BD
:1041500010E0824928312068884201D1001509E029
:104160007E493C312068884202D10120800301E071
:1041700001208004784944394860112121200155EB
:10418000E06A002802D02046E16A884772493C3143
:104190002068884255D97148083800686E4A3C3A10
:1041A0002168914201D1022149E06B4A283A2168F5
:1041B000914201D1202142E0674A143A216891429C
:1041C00001D149153BE0644A2168914202D10121A5
:1041D000490334E0604A14322168914202D101213E
:1041E00049042CE05C4A28322168914202D1012125
:1041F000490524E0584A3C322168914201D18904A2
:104200001DE0564A2168914201D1022117E0534A2C
:1042100014322168914201D1202110E04F4A283206
:104220002168914201D1491509E04C4A3C3221688C
:10423000914202D10121490301E0012149040840D2
:1042400054E0454844380068434A3C3A216891426A
:1042500001D1022149E0404A283A2168914201D126
:10426000202142E03C4A143A2168914201D149158B
:104270003BE0394A2168914202D10121490334E0EF
:10428000354A14322168914202D1012149042CE0BF
:10429000314A28322168914202D10121490524E0A6
:1042A0002D4A3C322168914201D189041DE02B4AFC
:1042B0002168914201D1022117E0284A1432216875
:1042C000914201D1202110E0244A283221689142F4
:1042D00001D1491509E0214A3C322168914202D1BD
:1042E0000121490301E001214904084000286FD061
:1042F00020680068022108404008002868D0206833
:10430000006820210840002805D1206800680221AB
:1043100088432168086010493C312068884258D998
:104320000D493C392068884201D102204CE00A49FD
:1043300028392068884201D1202045E006491439F7
:104340002068884201D140153EE003492068884238
:1043500006D10120400337E0440002400804024037
:104360004E492068884202D1012040042CE04B498C
:1043700014312068884202D10120400524E04749D9
:1043800028312068884201D180041DE0444920681A
:10439000884201D1022017E0414914312068884247
:1043A00001D1202010E03E4928312068884201D107
:1043B000401509E03A493C312068884202D1012089
:1043C000400301E00120400435490839486054E0C9
:1043D00063E0324950392068884201D1022049E027
:1043E0002E493C392068884201D1202042E02B49E7
:1043F00028392068884201D140153BE0274914390B
:104400002068884202D10120400333E0234920681C
:10441000884202D1012040042CE020491431206858
:10442000884202D10120400524E01C49283120683F
:10443000884201D180041DE019492068884201D1D9
:10444000022017E0164914312068884201D120204B
:1044500010E0134928312068884201D1401509E055
:104460000F493C312068884202D10120400301E01D
:1044700001204004094958394860606B606301219C
:104480002120015500BF00212020015500BFA06A56
:10449000002802D02046A16A884710BD580002407B
:1044A0000804024001460022002901D10120704782
:1044B0002120405C002802D1002320204354022305
:1044C00021204354086802680C4802408B68486801
:1044D0001843CB6818430B6918434B6918438B6921
:1044E0001843CB6918430243086802600020486300
:1044F0000123212043540020D9E700000FC0FFFF13
:10450000F8B504460D4616461F4600BF2020005D44
:10451000012801D10220F8BD01212020015500BF52
:1045200002212120015520680068400840002168D0
:1045300008603B46324629462046FDF749FB206885
:10454000006802210843216808602068006804218F
:104550000843216808602068006808210843216832
:104560000860206800680121084321680860002075
:10457000D1E731B5002400F0FDF9044600BF00F09A
:10458000F9F9001B00998842F9D338BDF8B5044603
:104590000E460127002500BF2448007E012801D1D6
:1045A0000220F8BD01202149087600BF20680128BB
:1045B00011D11F48FEF792FE002830D1FEF734FEDD
:1045C0001B48FEF78BFE07461A4800690421884302
:1045D0001849086123E01648FEF780FE00281ED126
:1045E000401E3060656813E02846FEF731FE104833
:1045F000FEF774FE07460F480069022188430D4903
:104600000861002F01D0356008E00120C0022D189C
:10461000A168C90260684018A842E5D800BF00BF81
:1046200000200249087600BF3846BAE7F0040020AF
:1046300050C3000000200240034800698021084365
:10464000014908610020704700200240F0B51FB406
:1046500086B0074615461E46012003900024002020
:10466000029000BF2548007E012802D102200BB035
:10467000F0BD01202149087600BF2148FEF72EFE3B
:1046800003900398002831D1012F02D1012002901C
:1046900006E0022F02D10220029001E004200290E5
:1046A00000241FE022012846314604960595FBF7B9
:1046B0009DFD80B261000190079808180090019953
:1046C000FEF7DCFD0E48FEF709FE03900D48006979
:1046D000400840000B4908610398002800D004E01E
:1046E000601CC4B202988442DCDB00BF00BF002023
:1046F0000249087600BF0398B9E70000F0040020E3
:1047000050C3000000200240074800698021084093
:10471000002805D00548044948600548486001E084
:10472000012070470020FCE700200240230167457C
:10473000AB89EFCD78B50346002200240020E3E0EA
:10474000012696400D6835402C46002C7ED04D68E1
:10475000022D02D04D68122D15D1D508AE001D4690
:104760002035A8595507EE0E0F25B5400646AE4335
:1047700030465607F60E0D69B5402843D508AD0002
:104780001E4620367051186856000325B54006466F
:10479000AE4330460D79AD07AD0F5600B540284306
:1047A00018604D68012D08D04D68022D05D04D6868
:1047B000112D02D04D68122D18D19868560003258E
:1047C000B5400646AE4330465600CD68B540284356
:1047D00098605868012595400646AE43304610263D
:1047E0004D6835402D09954028435860D8685600DB
:1047F0000325B5400646AE43304656008D68B540A9
:104800002843D860012636074D683540B5427AD135
:1048100000BF404DAD69012635433E4EB56135467A
:10482000AD69ED07ED0F009500BF00BF3A4D96084A
:10483000B600A85995072E0F0F25B5400646AE4382
:1048400030460925ED06AB4203D100E05BE00025D0
:1048500014E0324DAB4201D101250FE0304DAB42A7
:1048600001D102250AE02F4DAB4201D1032505E01D
:104870002D4DAB4201D1042500E005259607360FEA
:10488000B5402843244D9608B600A851274D286806
:104890000546A5432846012636044D683540B542F5
:1048A00002D1054625432846204D28606868054604
:1048B000A5432846012676044D683540B54202D10D
:1048C000054625432846194D6860A8680546A54356
:1048D0002846012636054D683540B54202D10546C9
:1048E00025432846114DA860E8680546A54328469B
:1048F000012676054D683540B54202D1054625436F
:1049000028460A4DE860521C0D68D540002D00D0A5
:1049100016E778BD0010024008000140000400487E
:1049200000080048000C0048001000480004014046
:10493000024613690B40002B01D0012000E000204B
:10494000704742694A4042617047002A01D0816144
:1049500000E0816270470000024800680005000D19
:10496000704700000058014001480068000C704783
:104970000058014001480068704700001400002002
:1049800002480068401C014908607047140000207C
:1049900010B506480068102108430449086000204B
:1049A00000F006F800F017F8002010BD00200240CB
:1049B00070B5044600F054FA06467D21C900FBF7A5
:1049C000EBFB054601F04CF800222146501E00F09A
:1049D0000FF8002070BD704700BFC206D20E012143
:1049E0009140024A116000BF7047000000E100E002
:1049F00070B504460D4616462946204603F0EEF8EB
:104A000070BD000003480068FF21013108430149DF
:104A10000860704700700040F8B504460025002685
:104A20000121090420680840884266D15648006A7E
:104A300003210902084003221202616811408842E2
:104A40005BD000BF5048C0690121090708434E49A7
:104A5000C8610846C06909040840009000BF00BF53
:104A60004A4800680915084348490860FFF782FF73
:104A7000054606E0FFF77EFF401B642801D90320AE
:104A8000F8BD42480068FF21013108400028F1D0FC
:104A90003D48006A03210902884306463A48006AF5
:104AA000012109040843384908620846006A0121C7
:104AB00009048843344908620846066202203040EF
:104AC000002811D0FFF756FF054607E0FFF752FF19
:104AD000401B2F49884201D90320D1E72A48006AA8
:104AE000022108400028F1D02748006A032109026A
:104AF000884361680843244908622078C007C00FD2
:104B0000002807D02048006B80088000A168084377
:104B10001D490863022120680840022808D11A486C
:104B2000006B032109048843E168084316490863C0
:104B30000121890420680840884208D11248006B8E
:104B4000032189048843216908430F490863202110
:104B500020680840202807D10B48006B10218843AB
:104B600061690843084908630121890220680840F7
:104B7000884207D10448006B40218843A16908435B
:104B80000149086300207BE70010024000700040EC
:104B90008813000070B504460E460025AD48006835
:104BA000C007C00FB0426ED2AA480068400840005B
:104BB0003043A849086008460068C007C00FB042EB
:104BC00001D0012070BD022120680840022807D1D1
:104BD000A1484068F0218843A16808439E49486085
:104BE0002078C007C00F002848D06068012808D18D
:104BF00099480068012149040840002821D101207A
:104C0000E0E76068022808D193480068012149065E
:104C10000840002815D10120D4E76068032808D196
:104C20008D48406B012109040840002809D101206A
:104C3000C8E78948006802210840002801D1012006
:104C4000C0E7854840688008800061680843824961
:104C50004860FFF78FFE0546606801280FD107E026
:104C6000FFF788FE401B7D49884201D90320A9E750
:104C7000794840680C2108400428F1D1D6E06068EA
:104C8000022810D108E031E0FFF774FE401B7349A1
:104C9000884201D9032095E76F4840680C210840FD
:104CA0000828F1D1C2E0606803280FD107E0FFF7C0
:104CB00061FE401B6949884201D9032082E76648AA
:104CC00040680C2108400C28F1D1AFE007E0FFF765
:104CD00051FE401B6149884201D9032072E75E48BA
:104CE00040680C2108400028F1D19FE00221206893
:104CF0000840022807D158484068F0218843A1683D
:104D00000843554948602078C007C00F00287ED06E
:104D10006068012808D15048006801214904084012
:104D2000002821D101204DE76068022808D14A48B7
:104D30000068012149060840002815D1012041E7FB
:104D40006068032808D14448406B012109040840E9
:104D5000002809D1012035E73F48006802210840BA
:104D6000002801D101202DE73B48406880088000E1
:104D70006168084338494860FFF7FCFD05466068F4
:104D800001280FD107E0FFF7F5FD401B33498842AA
:104D900001D9032016E7304840680C210840042858
:104DA000F1D134E0606802280FD107E0FFF7E2FD9F
:104DB000401B2A49884201D9032003E7264840685E
:104DC0000C2108400828F1D121E0606803280FD1A8
:104DD00007E0FFF7CFFD401B2049884201D903209F
:104DE000F0E61D4840680C2108400C28F1D10EE087
:104DF00007E0FFF7BFFD401B1849884201D9032097
:104E0000E0E6154840680C2108400028F1D111481F
:104E100000684008400030430E49086008460068BA
:104E2000C007C00FB04201D00120CBE604212068AA
:104E30000840042808D1084840680721090288432F
:104E4000E1680843044948600020FFF7B1FD0020F5
:104E5000B8E6000000200240001002408813000065
:104E600010B500F025F806494968F02211400909FB
:104E7000044A515CC840044908600846006810BDF7
:104E800000100240303501080000002010B5FFF787
:104E9000E7FF05494968072212021140090A034A3F
:104EA000515CC84010BD00000010024030350108C0
:104EB000F0B589B02FA001460EC9C06805AC0EC47C
:104EC000089030A001460EC9C06801AC0EC4049021
:104ED0000024002600270025002000902D4844686B
:104EE0000C20204000283DD0042804D0082805D0FC
:104EF0000C2836D132E02848009036E00F2080049C
:104F00002040800C05A90D5C2248C06A0007000FF4
:104F100001A90E5C0320C00320400121090488423E
:104F200006D131461C48FBF737F96843074613E0C2
:104F30000320C00320400321C903884206D1314623
:104F40001648FBF729F96843074605E03146124841
:104F5000FBF722F968430746009706E00F480090E8
:104F600003E000BF0C48009000BF00BF009809B0EC
:104F7000F0BD000002030405060708090A0B0C0D2A
:104F80000E0F10100102030405060708090A0B0C96
:104F90000D0E0F100010024000127A00006CDC02AF
:104FA00038B5044600252078C007C00F00286FD010
:104FB000FE4840680C21084004280CD0FB4840689B
:104FC0000840082813D1F9484068490308400121E6
:104FD000090488420BD1F5480068012149040840C2
:104FE0000028E4D06068002852D1012038BD00BFFD
:104FF000EE480068012109048843EC49086008462E
:105000000068012189048843E849086000BFFFF770
:10501000B1FC054606E0FFF7ADFC401B642801D952
:105020000320E3E7E1480068012149040840002823
:10503000F1D100BF6068012806D1DC480068491042
:105040000843DA49086032E0606800280ED1D7488A
:105050000068012109048843D449086008460068B3
:10506000012189048843D149086020E0606805284F
:105070000FD1CE480068012189040843CB4908605C
:1050800008460068012109040843C84908600EE089
:1050900036E0C6480068012109048843C349086016
:1050A00008460068012189048843C049086000BFA0
:1050B0006068002812D0FFF75DFC054606E0FFF7A8
:1050C00059FC401B642801D903208FE7B7480068CA
:1050D0000121490408400028F1D011E0FFF74AFC03
:1050E000054606E0FFF746FC401B642801D9032073
:1050F0007CE7AE4800680121490408400028F1D14E
:10510000022120680840022862D1A84840680C218A
:10511000084000280CD0A5484068084008281CD149
:10512000A2484068490308400121C903884214D1BC
:105130009E48006802210840002804D0E068012849
:1051400001D0012052E799480068F821884321697D
:10515000C9000843954908603AE0E068002820D07B
:10516000924800680121084390490860FFF702FC5B
:10517000054606E0FFF7FEFB401B642801D903202B
:1051800034E78A480068022108400028F2D08748A6
:105190000068F82188432169C900084383490860F1
:1051A00016E0824800684008400080490860FFF728
:1051B000E1FB054606E0FFF7DDFB401B642801D953
:1051C000032013E779480068022108400028F2D143
:1051D000082120680840082831D1206A002817D00B
:1051E0007248406A0121084370494862FFF7C2FBD8
:1051F000054606E0FFF7BEFB401B642801D90320EB
:10520000F4E66A48406A022108400028F2D016E01D
:105210006648406A4008400064494862FFF7AAFBBC
:10522000054606E0FFF7A6FB401B642801D90320D2
:10523000DCE65E48406A022108400028F2D10421E1
:1052400020680840042870D100BF5848C06989060A
:1052500008435649C8610846C069090408400090DF
:1052600000BF00BF52480068091508435049086054
:10527000FFF780FB054606E0FFF77CFB401B642838
:1052800001D90320B2E64A480068FF2101310840F5
:105290000028F1D000BF4548006A4008400043495B
:1052A00008620846006A042188434049086200BF3A
:1052B000FFF760FB054607E0FFF75CFB401B3D493D
:1052C000884201D9032091E63848006A022108404B
:1052D0000028F1D100BFA068012806D13348006A38
:1052E00001210843314908622CE0A06800280CD154
:1052F0002E48006A400840002C4908620846006AAF
:1053000004218843294908621CE0A06805280DD1C2
:105310002648006A04210843244908620846006AB6
:1053200001210843214908620CE034E01F48006A6B
:10533000400840001D4908620846006A042188436D
:105340001A49086200BFA068002812D0FFF712FBBC
:10535000054607E0FFF70EFB401B1649884201D9BE
:10536000032043E61148006A022108400028F1D0DA
:1053700011E0FFF7FFFA054607E0FFF7FBFA401BD5
:105380000C49884201D9032030E60848006A02210E
:1053900008400028F1D1102120680840102860D171
:1053A000606901282DD10148406B05E000100240E2
:1053B0000070004088130000042108438E494863B0
:1053C0000846406B012108438B494863FFF7D2FA36
:1053D000054606E0FFF7CEFA401B642801D90320FA
:1053E00004E68548406B022108400028F2D082483C
:1053F000406BF8218843A169C90008437E4948638E
:105400002FE06069401D00280FD17B48406B0421CC
:105410008843794948630846406BF8218843A1696D
:10542000C9000843744948631BE07348406B04217A
:105430000843714948630846406B40084000486390
:10544000FFF798FA054606E0FFF794FA401B642838
:1054500001D90320CAE56848406B022108400028B2
:10546000F2D1202120680840202852D162484068AB
:105470000C2108400C280AD05F48406808400828E2
:1054800011D15D4840684903084088420BD15A4811
:10549000406B01210904084000283AD0E069012846
:1054A00037D00120A2E5E069002819D05248406BAE
:1054B00001210904084350494863FFF75BFA054698
:1054C00006E0FFF757FA401B642801D903208DE559
:1054D0004948406B0121090408400028F1D018E038
:1054E0004548406B01210904884343494863FFF75D
:1054F00041FA054606E0FFF73DFA401B642801D952
:10550000032073E53C48406B012109040840002852
:10551000F1D1606A00286CD0374840680C210840FF
:10552000082864D0606A022847D133480068012106
:105530000906884330490860FFF71CFA054606E073
:10554000FFF718FA401B642801D903204EE52A48CA
:1055500000680121490608400028F1D100BF264813
:10556000C06A00090001216B08432349C862A16A8F
:10557000E06A0843204949687B22D20391430843EB
:105580001D49486000BF084600680121090608431C
:1055900019490860FFF7EEF9054606E0FFF7EAF95A
:1055A000401B642801D9032020E51348006801212D
:1055B000490608400028F1D01BE00F48006801218F
:1055C000090688430C490860FFF7D4F9054606E050
:1055D000FFF7D0F9401B642801D9032006E50648EF
:1055E00000680121490608400028F1D101E00120AE
:1055F000FCE40020FAE40000001002400246002310
:105600001068034650338800C3181868704710B5F7
:1056100000230468234650338C00E3181A6010BD41
:10562000F0B506460C46174600253068406812491A
:1056300008400546FF2000042840000CE0701F20B1
:1056400000022840000A6070A806800EA0700720A3
:1056500040032840400B2070002F0BD1E07805F06C
:1056600049FFE070607805F045FF6070A07805F0B4
:1056700041FFA0700020F0BD3FFFFF00F0B50646DF
:105680000C46174600253068806A60603068006804
:105690001249084005463F2000042840000C2070B5
:1056A0007F2000022840000A60706806400EA0704B
:1056B000012080052840000C2072002F0BD120789B
:1056C00005F018FF2070607805F014FF6070A07876
:1056D00005F010FFA0700020F0BD00007F7F7F006C
:1056E00010B50446002C01D1012010BD607F0028B8
:1056F00003D12077204600F051F80220607700BFE8
:10570000CA202168486253202168486200BF2046B1
:1057100005F08EFF002808D000BFFF2021684862F6
:1057200000BF042060770120DFE7206880681A4905
:1057300008402168886021696068084361690843FE
:10574000216889680843216888602168E0680861E9
:1057500020680069218909040843216808612068DC
:10576000C068802188432168C8602068006C0121DE
:1057700089048843216808642068006CA169084393
:105780002168086400BFFF202168486200BF012033
:1057900060770020A9E70000BFFF8FFF704700007F
:1057A000F8B504460D461646002700BF207F0128A5
:1057B00001D10220F8BD0120207700BF02206077D0
:1057C000002E09D1687810210840102804D168788B
:1057D000EF2108400A306870002E11D1E87805F0FA
:1057E00096FE0304687805F092FE00020343A87851
:1057F00005F08DFE03432878400303431F4612E063
:10580000687805F077FE0746A87805F073FE07462E
:10581000E8780004697809020843A97808432978E0
:1058200049030843074600BFCA2021684862532045
:105830002168486200BF204605F0FAFE00280CD01F
:1058400000BFFF202168486200BF0420607700BFCE
:105850000020207700BF0120ACE7174838402168BE
:1058600048602068C068802188432168C86020683B
:10587000806820210840002811D1204600F0C0F89F
:1058800000280CD000BFFF202168486200BF042020
:10589000607700BF0020207700BF01208AE700BFAB
:1058A000FF202168486200BF0120607700BF002010
:1058B000207700BF00BF7DE73FFFFF00F8B504463B
:1058C0000D461646002700BF207F012801D1022087
:1058D000F8BD0120207700BF02206077002E1BD189
:1058E0002068806840210840002800D002E00020A5
:1058F000287200BF287805F00AFE0304687805F0D6
:1059000006FE00020343A87805F001FE0343287A4F
:10591000000403431F4618E02068806840210840C7
:10592000002804D0287805F0E5FD074602E00020B5
:10593000287200BF28780004697809020843A97812
:105940000843297A09040843074600BFCA20216892
:10595000486253202168486200BF204605F068FE77
:1059600000280CD000BFFF202168486200BF04203F
:10597000607700BF0020207700BF0120A8E71F4804
:1059800038402168086020688068012189048843C4
:10599000216888602969E8680843216889680843A4
:1059A000216888602068C068802188432168C860B9
:1059B0002068806820210840002811D1204600F08E
:1059C0001FF800280CD000BFFF202168486200BFEC
:1059D0000420607700BF0020207700BF012077E718
:1059E00000BFFF202168486200BF0120607700BF30
:1059F0000020207700BF00BF6AE700007F7F7F00A4
:105A000070B5044600252068C068A021884321683D
:105A1000C860FEF7AFFF054608E0FEF7ABFF401B8E
:105A20007D21C900884201D9032070BD2068C0686B
:105A3000202108400028F0D00020F6E7042806D1F5
:105A40000649096904221143044A116105E003492A
:105A5000096904229143014A1161704700E000E0A6
:105A600070B504462546681E0949884201D90120BF
:105A70000CE0681E074948610321081F02F0AEF8D8
:105A800000200449886107200861002070BD0000E3
:105A9000FFFFFF0000E000E070477047024600BFD4
:105AA0003820805C012801D1022070470123382072
:105AB000835400BF02233920835410684068702348
:105AC000984313685860106840680B68184313685F
:105AD0005860106880688023984313689860106845
